:100000000C9461000C947E000C947E000C947E0095
:100010000C947E000C947E000C947E000C947E0068
:100020000C947E000C947E000C947E000C947E0058
:100030000C947E000C947E000C947E000C947E0048
:100040000C94D2010C947E000C947E000C947E00E3
:100050000C947E000C947E000C947E000C947E0028
:100060000C947E000C947E00000000002400270009
:100070002A0000000000250028002B0000000000DE
:1000800023002600290004040404040404040202DA
:100090000202020203030303030301020408102007
:1000A0004080010204081020010204081020000012
:1000B0000007000201000003040600000000000029
:1000C000000011241FBECFEFD4E0DEBFCDBF11E092
:1000D000A0E0B1E0EEEBF5E002C005900D92A23099
:1000E000B107D9F714E0A2E0B1E001C01D92AF3032
:1000F000B107E1F70E94CB010C94DD020C940000E3
:100100008F929F92AF92BF92CF92DF92EF92FF9227
:100110000F931F93CF93DF9383E060E00E949002E0
:1001200084E060E00E94900282E060E00E94900221
:1001300081E090E00E9428024CEE842E4FEF942E36
:1001400077C08881813019F060E0833009F461E084
:1001500087E00E94900260E088818250823008F43B
:1001600061E086E00E9490028C81813019F060E0AD
:10017000833009F461E088E00E94900260E08C81A5
:100180008250823008F461E085E00E94900282E0B3
:1001900060E00E9490028AE090E00E94280282E0E3
:1001A00061E00E9490028AE090E00E94280282E0D2
:1001B00060E00E94900282E090E00E942802089491
:1001C000C108D10828978FEFC8168FEFD80609F01D
:1001D000B8CF0894E108F1089FEFE9169FEFF90600
:1001E00049F0E701C00FD11FCE5FDE4F33E0C32ED1
:1001F000D12CA7CF0894A108B108A114B10481F0B3
:1002000084010A191B090095109523E0E22EF12CB8
:1002100095E0000F111F9A95E1F7085E1F4FE1CF9F
:1002200084E090E0880E991E94E08916910421F0F4
:1002300084E0A82EB12CE4CF82E090E00E94280256
:1002400083E061E00E94900282E090E00E94280238
:1002500083E060E00E94900284E060E00E949002EF
:1002600082E090E00E942802DF91CF911F910F91D0
:10027000FF90EF90DF90CF90BF90AF909F908F90C6
:1002800008950E9480000E941A0220910204309179
:10029000030440910404509105042C503E4F4F4FED
:1002A0005F4F261737074807590738F020E030E03E
:1002B00040E050E071E062E03DC00E941A026093AD
:1002C00002047093030480930404909305048091C6
:1002D000000190910101019759F482E090E0909320
:1002E0000101809300014091000120E030E00EC048
:1002F00081E090E0F4CF40830196389680369105F6
:10030000D1F72F5F3F4F2830310581F2F901EE5FC1
:10031000FE4F80E090E0EFCF7083618301963896C6
:1003200028173907CCF72F5F3F4F405F5F4F2630CC
:10033000310559F0FA01A3E0EE0FFF1FAA95E1F78E
:10034000EC5FFE4F80E090E0E7CF089582E061E04F
:100350000E94700284E061E00E94700283E061E02C
:100360000E94700287E061E00E94700286E061E016
:100370000E94700285E061E00E94700288E061E006
:100380000E9470028DE061E00E9470028DE061E0E9
:100390000E94900208950E9436020E94A6010E94C7
:1003A0004101FDCF1F920F920FB60F9211242F9390
:1003B0003F938F939F93AF93BF9380910A04909143
:1003C0000B04A0910C04B0910D0430910E04019621
:1003D000A11DB11D232F2D5F2D3720F02D57019624
:1003E000A11DB11D20930E0480930A0490930B0469
:1003F000A0930C04B0930D0480910604909107041F
:10040000A0910804B09109040196A11DB11D80932B
:10041000060490930704A0930804B0930904BF91C5
:10042000AF919F918F913F912F910F900FBE0F90A1
:100430001F9018958FB7F89420910A0430910B04FF
:1004400040910C0450910D048FBFB901CA01089569
:10045000019759F0FC01EE0FFF1FEE0FFF1F3297BF
:100460008FB7F8943197F1F78FBF0895789484B5DA
:10047000826084BD84B5816084BD85B5826085BDA0
:1004800085B5816085BDEEE6F0E080818160808386
:10049000E1E8F0E0808182608083808181608083F8
:1004A000E0E8F0E0808181608083E1EBF0E0808132
:1004B00084608083E0EBF0E0808181608083EAE704
:1004C000F0E080818460808380818260808380818D
:1004D000816080838081806880831092C10008954C
:1004E000282F30E0C90186569F4FFC0194912A576E
:1004F0003F4FF9018491882391F0E82FF0E0EE0F4F
:10050000FF1FE859FF4FA591B491662329F48C9100
:10051000909589238C9308958C91892B8C930895C1
:10052000482F50E0CA0182559F4FFC012491CA0117
:1005300086569F4FFC0194914A575F4FFA013491C0
:100540003323D1F1222331F1233021F48091800033
:100550008F7705C0243031F4809180008F7D8093A7
:10056000800018C0213019F484B58F7704C0223080
:1005700021F484B58F7D84BD0DC0263021F4809197
:10058000B0008F7705C0273029F48091B0008F7DAF
:100590008093B000E32FF0E0EE0FFF1FEE58FF4F07
:1005A000A591B491662329F48C91909589238C931D
:0E05B00008958C91892B8C930895F894FFCFB9
:0205BE0001003A
:00000001FF
