:100000000C9462000C948A000C948A000C948A0070
:100010000C948A000C948A000C948A000C948A0038
:100020000C948A000C948A000C948A000C948A0028
:100030000C948A000C948A000C948A000C948A0018
:100040000C94BD020C948A000C94C8030C948A0092
:100050000C948A000C948A000C948A000C948A00F8
:100060000C948A000C948A000000000024002700F1
:100070002A0000000000250028002B0000000000DE
:1000800023002600290004040404040404040202DA
:100090000202020203030303030301020408102007
:1000A0004080010204081020010204081020000012
:1000B0000007000201000003040600000000000029
:1000C0000000110511241FBECFEFD4E0DEBFCDBF6D
:1000D00011E0A0E0B1E0ECECFCE002C005900D9274
:1000E000AE30B107D9F712E0AEE0B1E001C01D9229
:1000F000A234B107E1F710E0C4ECD0E004C02297CD
:10010000FE010E942906C23CD107C9F70E94B6022F
:100110000C9464060C940000A0E0B0E0E2E9F0E08A
:100120000C943506EC01A880B980CA80DB80A1144C
:10013000B104C104D10441F484E2A82E89EDB82EA3
:100140008BE5C82E87E0D82EC601B5012DE133EF2F
:1001500041E050E00E94F80527EA31E440E050E039
:100160000E94A4057B018C01C601B5012DE133EF8E
:1001700041E050E00E94F805CA01B9012CEE34EFCD
:100180004FEF5FEF0E94A4056E0D7F1D801F911F32
:1001900097FF04C061507040804090486883798325
:1001A0008A839B839B01AC015F77B901CA01CDB7FC
:1001B000DEB7EAE00C9451060E948C00089580E0BE
:1001C00091E00E948C0008956093000170930101FA
:1001D00080930201909303010895DF93CF93CDB7ED
:1001E000DEB7A0970FB6F894DEBF0FBECDBF982F35
:1001F000AEE0B1E0BE016F5F7F4FFB018C91808369
:1002000011821896329681E0AE38B807B9F740E00F
:1002100050E00CC02F5F3F4F818181932730310523
:10022000C9F74F5F5F4F4031510559F0FA01B3E014
:10023000EE0FFF1FBA95E1F7E25FFE4F20E030E0DE
:10024000E9CF992379F0E5E1F1E09E012F5D3F4F81
:10025000DB018C9180836E5F7F4F38966217730746
:10026000B9F708C0E5E1F1E010823896B1E0E53970
:10027000FB07D1F7A0960FB6F894DEBF0FBECDBF37
:10028000CF91DF9108958F929F92AF92BF92CF92BC
:10029000DF92EF92FF920F931F93CF93DF9383E050
:1002A00060E00E947B0384E060E00E947B0382E0C8
:1002B00060E00E947B0381E090E00E941303ECEF7A
:1002C0008E2EEFEF9E2E6EC08881813019F060E097
:1002D000833009F461E087E00E947B0360E088815D
:1002E0008250823008F461E086E00E947B038C81BA
:1002F000813019F060E0833009F461E088E00E9409
:100300007B0360E08C818250823008F461E085E0FC
:100310000E947B0382E061E00E947B0381E090E029
:100320000E94130382E060E00E947B0381E090E082
:100330000E9413030894C108D10828978FEFC816AC
:100340008FEFD80609F60894E108F1089FEFE91647
:100350009FEFF90649F0E701C00FD11FC25FDE4FE2
:1003600073E0C72ED12CB0CF0894A108B108A11416
:10037000B10481F084010A191B090095109563E00E
:10038000E62EF12C55E0000F111F5A95E1F7085E9B
:100390001F4FE1CF84E090E0880E991E94E089160B
:1003A000910421F044E0A42EB12CE4CF83E061E07D
:1003B0000E947B0381E090E00E94130383E060E0F1
:1003C0000E947B0384E060E00E947B03DF91CF9179
:1003D0001F910F91FF90EF90DF90CF90BF90AF9063
:1003E0009F908F9008958FE292E040E855E260E0A0
:1003F00070E00E94050482E061E00E945B0384E0FB
:1004000061E00E945B0383E061E00E945B0387E0A0
:1004100061E00E945B0386E061E00E945B0385E08F
:1004200061E00E945B0388E061E00E945B038DE075
:1004300061E00E945B038DE061E00E947B038AE043
:1004400061E00E945B0389E060E00E945B0320E0C2
:1004500030E041E00AC04193019688309105D9F718
:100460002F5F3F4F2031310559F0F901A3E0EE0F26
:10047000FF1FAA95E1F7E25FFE4F80E090E0EBCF2F
:100480000E9443010895EF92FF920F931F93E09013
:100490009E01F0909F010091A0011091A1010E9486
:1004A00005036E157F058007910700F510928E01F8
:1004B00010928F011092900110929101109292016E
:1004C000109293011092940110929501109296014E
:1004D00010929701109298011092990110929A012E
:1004E00010929B0110929C0110929D011F910F91FF
:1004F000FF90EF900895AF92BF92CF92DF92EF926C
:10050000FF920F931F930E94430260E170E080E02E
:1005100090E00E9482057B018C0168E070E080E041
:1005200090E00E9482055B016C0163E070E080E076
:1005300090E00E94820593E0EE0CFF1C9A95E1F793
:10054000EA0CFB1C8EE091E0E80EF91EF7016083D7
:1005500081E00E94ED000E9443011F910F91FF90E6
:10056000EF90DF90CF90BF90AF9008950E9421034D
:100570000E94F3010E947B02FDCF1F920F920FB6E3
:100580000F9211242F933F938F939F93AF93BF9319
:100590008091A6019091A701A091A801B091A90115
:1005A0003091AA010196A11DB11D232F2D5F2D377A
:1005B00020F02D570196A11DB11D2093AA01809313
:1005C000A6019093A701A093A801B093A9018091DF
:1005D000A2019091A301A091A401B091A50101965F
:1005E000A11DB11D8093A2019093A301A093A4012A
:1005F000B093A501BF91AF919F918F913F912F91A2
:100600000F900FBE0F901F9018958FB7F894209100
:10061000A6013091A7014091A8015091A9018FBF77
:10062000B901CA010895019759F0FC01EE0FFF1FAF
:10063000EE0FFF1F32978FB7F8943197F1F78FBF06
:100640000895789484B5826084BD84B5816084BD4A
:1006500085B5826085BD85B5816085BDEEE6F0E03B
:10066000808181608083E1E8F0E080818260808326
:10067000808181608083E0E8F0E080818160808318
:10068000E1EBF0E0808184608083E0EBF0E080814A
:1006900081608083EAE7F0E08081846080838081EC
:1006A0008260808380818160808380818068808394
:1006B0001092C1000895282F30E0C90186569F4F3F
:1006C000FC0194912A573F4FF9018491882391F0BE
:1006D000E82FF0E0EE0FFF1FE859FF4FA591B4910E
:1006E000662329F48C91909589238C9308958C919D
:1006F000892B8C930895482F50E0CA0182559F4F53
:10070000FC012491CA0186569F4FFC0194914A57DF
:100710005F4FFA0134913323D1F1222331F1233099
:1007200021F4809180008F7705C0243031F48091CE
:1007300080008F7D8093800018C0213019F484B52B
:100740008F7704C0223021F484B58F7D84BD0DC025
:10075000263021F48091B0008F7705C0273029F42E
:100760008091B0008F7D8093B000E32FF0E0EE0F1A
:10077000FF1FEE58FF4FA591B491662329F48C9189
:10078000909589238C9308958C91892B8C9308954F
:100790001F920F920FB60F9211242F933F934F93F6
:1007A0005F936F937F938F939F93AF93BF93EF93D9
:1007B000FF934091C600E0912B02F0912C02CF01F3
:1007C000019660E870E00E94C3059C0180912D02B3
:1007D00090912E022817390739F0E555FE4F4083D6
:1007E00030932C0220932B02FF91EF91BF91AF9198
:1007F0009F918F917F916F915F914F913F912F9139
:100800000F900FBE0F901F9018955F926F927F927E
:100810008F929F92AF92BF92CF92DF92EF92FF9210
:100820000F931F93CF93DF93EC013A014B014134B7
:1008300082E458078FE0680780E078070CF07FC0FB
:1008400060E874E88EE190E0A40193010E94F8054D
:100850002150304040405040CA01B90122E030E010
:1008600040E050E00E94F80559016A01A601950197
:10087000209530954095509594E0220F331F441FEA
:10088000551F9A95D1F760E074E284EF90E00E94E2
:10089000F805CA01B9012FEF30E040E050E00E94B6
:1008A000A405A40193010E94F805C90181509F4F3E
:1008B000181619061CF4522E5A9403C0552453944A
:1008C000521A60E079E08DE390E0A40193010E9468
:1008D000F8052150304040405040CA01B90122E0A3
:1008E00030E040E050E00E94F805209530954095BA
:1008F000509583E0220F331F441F551F8A95D1F76F
:1009000060E074E284EF90E00E94F805CA01B9014A
:100910002FEF30E040E050E00E94A405A4019301D5
:100920000E94F805C90181509F4F181619061CF442
:10093000822F815002C081E0821B851500F5E88579
:10094000F98581E090E00A8802C0880F991F0A9417
:10095000E2F7808360E079E08DE390E0A401930109
:100960000E94F8052150304040405040CA01B90172
:1009700022E030E040E050E00E94F80504C0E88545
:10098000F98510829501EC81FD813083EE81FF8134
:100990002083EA85FB85208141E050E0CA010E8476
:1009A00002C0880F991F0A94E2F7282B2083EA855A
:1009B000FB852081CA010F8402C0880F991F0A9409
:1009C000E2F7282B2083EA85FB858081088802C016
:1009D000440F551F0A94E2F7842B8083DF91CF9157
:1009E0001F910F91FF90EF90DF90CF90BF90AF904D
:1009F0009F908F907F906F905F900895FC01A085ED
:100A0000B18521898C9190E0022E02C09595879541
:100A10000A94E2F780FFF6CF0484F585E02D608329
:100A2000089588E091E09093300280932F028BEA42
:100A300091E0909332028093310285EC90E09093A4
:100A400034028093330284EC90E0909336028093DA
:100A5000350280EC90E0909338028093370281EC6D
:100A600090E090933A028093390286EC90E0909364
:100A70003C0280933B0284E080933D0283E08093BC
:100A80003E0287E080933F0285E08093400281E050
:100A90008093410208950F931F93CF93DF938C01AE
:100AA000EB0109C02196D801ED91FC910190F081F4
:100AB000E02DC801099568816623A1F7DF91CF91E8
:100AC0001F910F910895EF92FF920F931F93CF9371
:100AD000DF938C017B01EA010CC0D7016D917D0190
:100AE000D801ED91FC910190F081E02DC8010995AC
:100AF0002197209791F7DF91CF911F910F91FF9050
:100B0000EF900895EF92FF920F931F937B018C015A
:100B1000611571058105910529F420E030E040E080
:100B200050E00BC00E94DF00A80197010E94F80569
:100B3000AC01CB01DA019C01AD01B901CA011F91E1
:100B40000F91FF90EF900895629FD001739FF00185
:100B5000829FE00DF11D649FE00DF11D929FF00D4D
:100B6000839FF00D749FF00D659FF00D9927729F84
:100B7000B00DE11DF91F639FB00DE11DF91FBD010F
:100B8000CF011124089597FB092E07260AD077FD7F
:100B900004D049D006D000201AF4709561957F4F9B
:100BA0000895F6F7909581959F4F0895A1E21A2E2A
:100BB000AA1BBB1BFD010DC0AA1FBB1FEE1FFF1F01
:100BC000A217B307E407F50720F0A21BB30BE40B51
:100BD000F50B661F771F881F991F1A9469F7609598
:100BE0007095809590959B01AC01BD01CF01089552
:100BF00097FB092E05260ED057FD04D0D7DF0AD06B
:100C0000001C38F450954095309521953F4F4F4F3B
:100C10005F4F0895F6F790958095709561957F4F99
:100C20008F4F9F4F0895AA1BBB1B51E107C0AA1FFE
:100C3000BB1FA617B70710F0A61BB70B881F991F7D
:100C40005A95A9F780959095BC01CD010895EE0FB6
:100C5000FF1F0590F491E02D09942F923F924F923F
:100C60005F926F927F928F929F92AF92BF92CF923C
:100C7000DF92EF92FF920F931F93CF93DF93CDB745
:100C8000DEB7CA1BDB0B0FB6F894DEBF0FBECDBFBD
:100C900009942A88398848885F846E847D848C848E
:100CA0009B84AA84B984C884DF80EE80FD800C8197
:100CB0001B81AA81B981CE0FD11D0FB6F894DEBF7A
:0C0CC0000FBECDBFED010895F894FFCFEA
:0E0CCC000100000000000000FE044B0563055F
:00000001FF
