:100000000C9462000C948A000C948A000C948A0070
:100010000C948A000C948A000C948A000C948A0038
:100020000C948A000C948A000C948A000C948A0028
:100030000C948A000C948A000C948A000C948A0018
:100040000C9419050C948A000C9442060C948A00B6
:100050000C948A000C948A000C948A000C948A00F8
:100060000C948A000C948A000000000024002700F1
:100070002A0000000000250028002B0000000000DE
:1000800023002600290004040404040404040202DA
:100090000202020203030303030301020408102007
:1000A0004080010204081020010204081020000012
:1000B0000007000201000003040600000000000029
:1000C00000008B0711241FBECFEFD4E0DEBFCDBFF1
:1000D00011E0A0E0B1E0E6E4F7E102C005900D9286
:1000E000A431B107D9F714E0A4E1B1E001C01D9239
:1000F000A036B107E1F710E0C4ECD0E004C02297CD
:10010000FE010E94660BC23CD107C9F70E9412058E
:100110000C94A10B0C940000A0E0B0E0E2E9F0E048
:100120000C94720BEC01A880B980CA80DB80A1140A
:10013000B104C104D10441F484E2A82E89EDB82EA3
:100140008BE5C82E87E0D82EC601B5012DE133EF2F
:1001500041E050E00E94350B27EA31E440E050E0F6
:100160000E94E10A7B018C01C601B5012DE133EF4C
:1001700041E050E00E94350BCA01B9012CEE34EF8A
:100180004FEF5FEF0E94E10A6E0D7F1D801F911FF0
:1001900097FF04C061507040804090486883798325
:1001A0008A839B839B01AC015F77B901CA01CDB7FC
:1001B000DEB7EAE00C948E0B0E948C00089580E07C
:1001C00091E00E948C0008956093000170930101FA
:1001D00080930201909303010895DF93CF93CDB7ED
:1001E000DEB760970FB6F894DEBF0FBECDBF982F75
:1001F000AAE1B1E0AE014F5F5F4FFA019D01285FB8
:100200003F4F8D918083118232962A173B07C9F7A1
:10021000B90120E030E00DC080858193E617F70733
:10022000D9F72F5F3F4FBF01685F7F4F2F343105F4
:1002300049F0F90183E0EE0FFF1F8A95E1F7E65ED2
:10024000FE4FEACF992371F0E2E9F3E09E012F5EC1
:100250003F4FDA018C9181934E5F5F4F42175307F6
:10026000C1F707C0E2E9F3E01192B3E0EA39FB0716
:10027000D9F760960FB6F894DEBF0FBECDBFCF9111
:10028000DF910895EF92FF920F931F93CF93DF9327
:10029000C0911701D09118016091AA037091AB032E
:1002A0008091AC039091AD032AE939E949E95FE314
:1002B0000E947E0A7B018C01BE01882777FD809514
:1002C000982F0E94CE099B01AC01C801B7010E9482
:1002D0009709882394F4E39784F08091BE0390916A
:1002E000BF03892B71F481E090E09093BF0380936A
:1002F000BE0381E08093190106C01092BF031092E3
:10030000BE0310921901DF91CF911F910F91FF90C1
:10031000EF900895AF92BF92CF92DF92EF92FF924B
:100320000F931F93CF93DF9320E030E040E050E045
:10033000C0E0D0E0CA01B90126E636E646E65FE352
:100340000E947E0A7B018C0185E00E94B7059C011A
:100350002050324037FF03C0309521953F4FB901FF
:10036000882777FD8095982F0E94CE092DEC3CECD4
:100370004CEC5DE30E947E0A9B01AC01C801B70111
:100380000E9433099B01AC012196C431D10591F63D
:100390000E949B097B018C01162F0F2D6091AA03EF
:1003A0007091AB038091AC039091AD0323E333E3F1
:1003B00043E75FE30E947E0A5B016C019701F7FE51
:1003C00003C0309521953F4FB901882777FD80956F
:1003D000982F0E94CE092DEC3CEC4CE45DE30E948A
:1003E0007E0A9B01AC01C601B5010E9433096093EE
:1003F000AA037093AB038093AC039093AD03109367
:10040000170100931801DF91CF911F910F91FF9079
:10041000EF90DF90CF90BF90AF9008958F929F9212
:10042000AF92BF92CF92DF92EF92FF920F931F9302
:10043000CF93DF9383E060E00E94F50584E060E005
:100440000E94F50582E060E00E94F50581E090E001
:100450000E946F05ECED8E2EEFEF9E2E6EC0888110
:10046000813019F060E0833009F461E087E00E9498
:10047000F50560E088818250823008F461E086E012
:100480000E94F5058C81813019F060E0833009F419
:1004900061E088E00E94F50560E08C818250823046
:1004A00008F461E085E00E94F50582E061E00E94C9
:1004B000F50581E090E00E946F0582E060E00E9417
:1004C000F50581E090E00E946F050894C108D1080D
:1004D00028978FEFC8168FEFD80609F60894E10821
:1004E000F1089FEFE9169FEFF90649F0E701C00F09
:1004F000D11FC65EDE4F73E0C72ED12CB0CF08945B
:10050000A108B108A114B10481F084010A191B09E2
:100510000095109563E0E62EF12C55E0000F111FB9
:100520005A95E1F7085E1F4FE1CF84E090E0880E16
:10053000991E94E08916910421F044E0A42EB12C78
:10054000E4CF83E061E00E94F50581E090E00E9445
:100550006F0583E060E00E94F50584E060E00E94A2
:10056000F505DF91CF911F910F91FF90EF90DF90F4
:10057000CF90BF90AF909F908F9008958DE494E0BE
:1005800040E855E260E070E00E947F0682E061E0B2
:100590000E94D50584E061E00E94D50583E061E01A
:1005A0000E94D50587E061E00E94D50586E061E004
:1005B0000E94D50585E061E00E94D50588E061E0F4
:1005C0000E94D5058DE061E00E94D5058DE061E0D7
:1005D0000E94F5058AE061E00E94D50589E060E0AF
:1005E0000E94D50520E030E041E00AC04193019629
:1005F00088309105D9F72F5F3F4F2035310559F0ED
:10060000F901A3E0EE0FFF1FAA95E1F7E65EFE4FAA
:1006100080E090E0EBCF0E940E0208959F92AF928F
:10062000BF92CF92DF92EF92FF920F931F93E090D1
:10063000A603F090A7030091A8031091A90384E6F4
:1006400090E0A0E0B0E0E80EF91E0A1F1B1F0E9418
:100650006105E616F7060807190708F0A9C00E9409
:1006600061056093A6037093A7038093A8039093FA
:10067000A90380E00E94ED0060E971E080E090E075
:100680000E94F2086A307105810591050CF090C056
:100690008091170190911801883291051CF460E057
:1006A00070E00CC0883C91051CF068E070E006C06A
:1006B00064E170E00E94000B625070407093B103DF
:1006C0006093B0036091AA037091AB038091AC0377
:1006D0009091AD0320E030E048EC52E40E9497098D
:1006E000882354F5AA24BB24650142E0942E0EC051
:1006F00067E070E080E090E00E94F208DC01CB014E
:10070000865E9E4F88589D4FDC019C928601750144
:100710006091B0037091B103882777FD8095982F81
:100720000E94F2080894A11CB11CC11CD11CE61641
:10073000F70608071907E4F2809117019091180154
:100740000B9714F18091AE039091AF03892BE1F4E4
:1007500064E070E080E090E027E030E040E050E0CE
:100760000E9414097093AF036093AE0360E070E0E1
:1007700080E090E027E030E040E050E00E94140983
:100780007093BD036093BC038091AE039091AF035F
:10079000181619066CF401979093AF038093AE037B
:1007A000E091BC03F091BD03EE56FC4F81E08083E5
:1007B0001F910F91FF90EF90DF90CF90BF90AF907F
:1007C0009F900895EF92FF920F931F930E946105EF
:1007D00020919A0330919B0340919C0350919D037B
:1007E000E090B803F090B9030091BA031091BB03F5
:1007F0002E0D3F1D401F511F621773078407950779
:1008000008F44EC00091B6031091B70368EF7FEF74
:100810008FEF9FEF28E030E040E050E00E941409A5
:100820009801260F371F3093B7032093B60337FD87
:1008300008C080910401909105010197281739079C
:1008400034F084E090E09093B7038093B6038091F6
:10085000B60380FD09C064EF71E080E090E028EB12
:100860003BE040E050E008C060ED77E080E090E0E1
:1008700028E833E140E050E00E9414096093B80397
:100880007093B9038093BA039093BB030E946105F0
:1008900060939A0370939B0380939C0390939D03B2
:1008A0008091B6039091B7031F910F91FF90EF9045
:1008B0000895EF92FF920F931F93E090B203F09090
:1008C000B3030091B4031091B5030E9461056E1546
:1008D0007F058007910700F510929A0310929B0301
:1008E00010929C0310929D0310929E0310929F03FE
:1008F0001092A0031092A1031092A2031092A303DE
:100900001092A4031092A5031092A6031092A703BD
:100910001092A8031092A9031F910F91FF90EF90DE
:100920000895EF92FF920F931F930E9459040E9423
:100930008A010E94420182E00E94B705E090040112
:10094000F0900501AA2797FDA095BA2FBC01CD0113
:100950000E94CE090E949B098B019C0180E094E0DB
:10096000B7010E94000BC8010E94000B7093160192
:1009700060931501E616F70631F40E94E2039093A6
:1009800016018093150120911501309116011092E6
:10099000140180910701909108012817390719F077
:1009A00081E080931401309308012093070181E0D6
:1009B000809306010E940E03609117017091180147
:1009C0008DE494E00E94DA088DE494E060E20E94F5
:1009D000FC076091B0037091B1038DE494E00E9434
:1009E000DA088DE494E060E20E94FC076091AA03BB
:1009F0007091AB038091AC039091AD030E949B0971
:100A00009B01AC018DE494E0B9010E94E208809161
:100A10000601882311F00E940E021F910F91FF9092
:100A2000EF9008950E947D050E94BE020E949104ED
:100A3000FDCF1F920F920FB60F9211242F933F9369
:100A40008F939F93AF93BF938091C4039091C503FD
:100A5000A091C603B091C7033091C8030196A11DB0
:100A6000B11D232F2D5F2D3720F02D570196A11D8D
:100A7000B11D2093C8038093C4039093C503A09332
:100A8000C603B093C7038091C0039091C103A091A6
:100A9000C203B091C3030196A11DB11D8093C00391
:100AA0009093C103A093C203B093C303BF91AF91CE
:100AB0009F918F913F912F910F900FBE0F901F909C
:100AC00018958FB7F8942091C4033091C5034091D5
:100AD000C6035091C7038FBFB901CA01089501979A
:100AE00059F0FC01EE0FFF1FEE0FFF1F32978FB77B
:100AF000F8943197F1F78FBF0895789484B58260A8
:100B000084BD84B5816084BD85B5826085BD85B5B1
:100B1000816085BDEEE6F0E0808181608083E1E860
:100B2000F0E0808182608083808181608083E0E862
:100B3000F0E0808181608083E1EBF0E0808184607F
:100B40008083E0EBF0E0808181608083EAE7F0E081
:100B500080818460808380818260808380818160E5
:100B600080838081806880831092C10008958F7097
:100B7000909109019295990F990F907C982B9093E1
:100B80007C0080917A00806480937A0080917A0062
:100B900086FDFCCF2091780040917900942F80E071
:100BA00030E0282B392BC9010895282F30E0C901E6
:100BB00086569F4FFC0194912A573F4FF90184912B
:100BC000882391F0E82FF0E0EE0FFF1FE859FF4F68
:100BD000A591B491662329F48C91909589238C93E7
:100BE00008958C91892B8C930895482F50E0CA0169
:100BF00082559F4FFC012491CA0186569F4FFC01EC
:100C000094914A575F4FFA0134913323D1F1222353
:100C100031F1233021F4809180008F7705C024309A
:100C200031F4809180008F7D8093800018C0213046
:100C300019F484B58F7704C0223021F484B58F7DF8
:100C400084BD0DC0263021F48091B0008F7705C09F
:100C5000273029F48091B0008F7D8093B000E32F7E
:100C6000F0E0EE0FFF1FEE58FF4FA591B491662301
:100C700029F48C91909589238C9308958C91892BDC
:100C80008C9308951F920F920FB60F9211242F93F9
:100C90003F934F935F936F937F938F939F93AF9304
:100CA000BF93EF93FF934091C600E0914904F09108
:100CB0004A04CF01019660E870E00E94000B9C019D
:100CC00080914B0490914C042817390739F0E75371
:100CD000FC4F408330934A0420934904FF91EF91E5
:100CE000BF91AF919F918F917F916F915F914F9144
:100CF0003F912F910F900FBE0F901F9018955F920C
:100D00006F927F928F929F92AF92BF92CF92DF921B
:100D1000EF92FF920F931F93CF93DF93EC013A0171
:100D20004B01413482E458078FE0680780E0780780
:100D30000CF07FC060E874E88EE190E0A4019301BC
:100D40000E94350B2150304040405040CA01B9014B
:100D500022E030E040E050E00E94350B59016A018A
:100D6000A6019501209530954095509594E0220F6D
:100D7000331F441F551F9A95D1F760E074E284EF4A
:100D800090E00E94350BCA01B9012FEF30E040E03E
:100D900050E00E94E10AA40193010E94350BC901B1
:100DA00081509F4F181619061CF4522E5A9403C0F6
:100DB00055245394521A60E079E08DE390E0A40149
:100DC00093010E94350B2150304040405040CA01F1
:100DD000B90122E030E040E050E00E94350B209560
:100DE00030954095509583E0220F331F441F551FC7
:100DF0008A95D1F760E074E284EF90E00E94350BB1
:100E0000CA01B9012FEF30E040E050E00E94E10A52
:100E1000A40193010E94350BC90181509F4F181600
:100E200019061CF4822F815002C081E0821B8515B7
:100E300000F5E885F98581E090E00A8802C0880F16
:100E4000991F0A94E2F7808360E079E08DE390E0F7
:100E5000A40193010E94350B215030404040504086
:100E6000CA01B90122E030E040E050E00E94350BB9
:100E700004C0E885F98510829501EC81FD813083FD
:100E8000EE81FF812083EA85FB85208141E050E0EF
:100E9000CA010E8402C0880F991F0A94E2F7282B1A
:100EA0002083EA85FB852081CA010F8402C0880F58
:100EB000991F0A94E2F7282B2083EA85FB8580811D
:100EC000088802C0440F551F0A94E2F7842B8083E0
:100ED000DF91CF911F910F91FF90EF90DF90CF9016
:100EE000BF90AF909F908F907F906F905F9008958C
:100EF000FC01A085B18521898C9190E0022E02C071
:100F0000959587950A94E2F780FFF6CF0484F585DE
:100F1000E02D608308958EE091E090934E048093DD
:100F20004D0489EC93E09093500480934F0485EC3A
:100F300090E0909352048093510484EC90E090935D
:100F400054048093530480EC90E090935604809373
:100F5000550481EC90E0909358048093570486ECFC
:100F600090E090935A048093590484E080935B044A
:100F700083E080935C0487E080935D0485E0809348
:100F80005E0481E080935F0408950F931F93CF93D5
:100F9000DF938C01EB0109C02196D801ED91FC9102
:100FA0000190F081E02DC801099568816623A1F7C1
:100FB000DF91CF911F910F910895EF92FF920F93C0
:100FC0001F93CF93DF938C017B01EA010CC0D70103
:100FD0006D917D01D801ED91FC910190F081E02DA2
:100FE000C80109952197209791F7DF91CF911F9123
:100FF0000F91FF90EF900895DC01ED91FC9101902D
:10100000F081E02D099508950F931F938C01DC0169
:10101000ED91FC910190F081E02D6DE00995D801F2
:10102000ED91FC910190F081E02DC8016AE00995F5
:101030001F910F9108952F923F924F925F926F925E
:101040007F928F929F92AF92BF92CF92DF92EF9258
:10105000FF920F931F93DF93CF93CDB7DEB7A09787
:101060000FB6F894DEBF0FBECDBF1C016A017B0135
:10107000411551056105710549F4DC01ED91FC91C3
:101080000190F081E02D60E3099554C088249924F3
:101090005401422E55246624772401E010E00C0F01
:1010A0001D1F080D191DC701B601A30192010E9461
:1010B000130BF80160830894811C911CA11CB11CC6
:1010C000C701B601A30192010E94130BC901DA0105
:1010D0006C017D01C114D104E104F104F1F681E059
:1010E000E82EF12CEC0EFD1EE80CF91C3E010894D4
:1010F000611C711CD501C4010197A109B1096C01E2
:10110000C818D90814C0F601EE0DFF1D60816A30C1
:1011100010F4605D01C0695CD101ED91FC9101901A
:10112000F081E02DC10109950894E108F1086E14E1
:101130007F0449F7A0960FB6F894DEBF0FBECDBF6F
:10114000CF91DF911F910F91FF90EF90DF90CF90A3
:10115000BF90AF909F908F907F906F905F904F90D7
:101160003F902F900895EF92FF920F931F93CF938C
:10117000DF93EC017A018B0177FF0FC0E881F981E1
:101180000190F081E02D6DE2099510950095F094A5
:10119000E094E11CF11C011D111DCE01B801A70155
:1011A0002AE00E941B08DF91CF911F910F91FF90C1
:1011B000EF900895AB01662757FD6095762F0E944A
:1011C000B30808950F931F938C01AB01662757FD59
:1011D0006095762F0E94B308C8010E9404081F91F1
:1011E0000F910895EF92FF920F931F937B018C0153
:1011F000611571058105910529F420E030E040E09A
:1012000050E00BC00E94DF00A80197010E94350B3F
:10121000AC01CB01DA019C01AD01B901CA011F91FA
:101220000F91FF90EF900895EF92FF920F931F930D
:101230007B018C01621773078407950764F4261BF2
:10124000370B480B590BCA01B9010E94F208E60E90
:10125000F71E081F191FB701C8011F910F91FF90BA
:10126000EF9008955058BB27AA270ED00DC1FED08D
:1012700030F003D120F031F49F3F11F41EF4F3C09D
:101280000EF4E095E7FBE9C0E92F0FD180F3BA1720
:10129000620773078407950718F071F49EF527C15C
:1012A0000EF4E0950B2EBA2FA02D0B01B901900181
:1012B0000C01CA01A0011124FF27591B99F0593FC5
:1012C00050F4503E68F11A16F040A22F232F342F0D
:1012D0004427585FF3CF469537952795A795F0405B
:1012E0005395C9F77EF41F16BA0B620B730B840B70
:1012F000BAF09150A1F0FF0FBB1F661F771F881F28
:10130000C2F70EC0BA0F621F731F841F48F487957F
:1013100077956795B795F7959E3F08F0B3CF93956E
:10132000880F08F09927EE0F97958795089571D04B
:1013300008F481E0089504D06894B111D9C00895EB
:10134000BCD088F09F5790F0B92F9927B751A0F0E3
:10135000D1F0660F771F881F991F1AF0BA95C9F749
:1013600012C0B13081F0C3D0B1E00895C0C0672F82
:10137000782F8827B85F39F0B93FCCF386957795F9
:101380006795B395D9F73EF49095809570956195E2
:101390007F4F8F4F9F4F0895E89409C097FB3EF40D
:1013A00090958095709561957F4F8F4F9F4F9923B2
:1013B000A9F0F92F96E9BB279395F6958795779530
:1013C0006795B795F111F8CFFAF4BB0F11F460FFF0
:1013D0001BC06F5F7F4F8F4F9F4F16C0882311F048
:1013E00096E911C0772321F09EE8872F762F05C05C
:1013F000662371F096E8862F70E060E02AF09A95F7
:10140000660F771F881FDAF7880F9695879597F9EB
:101410000895990F0008550FAA0BE0E8FEEF161685
:101420001706E807F907C0F012161306E407F507D8
:1014300098F0621B730B840B950B39F40A2661F04C
:10144000232B242B252B21F408950A2609F4A140EF
:10145000A6958FEF811D811D089597F99F6780E8FC
:1014600070E060E008959FEF80EC089500240A94F6
:101470001616170618060906089500240A9412166F
:101480001306140605060895092E0394000C11F4A2
:10149000882352F0BB0F40F4BF2B11F460FF04C04F
:1014A0006F5F7F4F8F4F9F4F089557FD9058440FA8
:1014B000551F59F05F3F71F04795880F97FB991FB3
:1014C00061F09F3F79F08795089512161306140670
:1014D000551FF2CF4695F1DF08C0161617061806FD
:1014E000991FF1CF86957105610508940895E894D8
:1014F000BB2766277727CB0197F908950BD0C4CF78
:10150000B5DF28F0BADF18F0952309F0A6CFABCFEE
:101510001124EECFCADFA0F3959FD1F3950F50E0D1
:10152000551F629FF001729FBB27F00DB11D639F95
:10153000AA27F00DB11DAA1F649F6627B00DA11D3B
:10154000661F829F2227B00DA11D621F739FB00DE1
:10155000A11D621F839FA00D611D221F749F332751
:10156000A00D611D231F849F600D211D822F762FEA
:101570006A2F11249F5750408AF0E1F088234AF0E7
:10158000EE0FFF1FBB1F661F771F881F9150504033
:10159000A9F79E3F510570F060CFAACF5F3FECF3F3
:1015A000983EDCF3869577956795B795F795E7951F
:1015B0009F5FC1F7FE2B880F911D9695879597F930
:1015C0000895629FD001739FF001829FE00DF11D8D
:1015D000649FE00DF11D929FF00D839FF00D749FAD
:1015E000F00D659FF00D9927729FB00DE11DF91F59
:1015F000639FB00DE11DF91FBD01CF0111240895B6
:1016000097FB092E07260AD077FD04D049D006D0D3
:1016100000201AF4709561957F4F0895F6F7909524
:1016200081959F4F0895A1E21A2EAA1BBB1BFD01B5
:101630000DC0AA1FBB1FEE1FFF1FA217B307E407B1
:10164000F50720F0A21BB30BE40BF50B661F771F09
:10165000881F991F1A9469F76095709580959095E9
:101660009B01AC01BD01CF01089597FB092E052612
:101670000ED057FD04D0D7DF0AD0001C38F45095A7
:101680004095309521953F4F4F4F5F4F0895F6F7A6
:1016900090958095709561957F4F8F4F9F4F0895DE
:1016A000AA1BBB1B51E107C0AA1FBB1FA617B70788
:1016B00010F0A61BB70B881F991F5A95A9F78095A4
:1016C0009095BC01CD010895EE0FFF1F0590F49198
:1016D000E02D09942F923F924F925F926F927F92EA
:1016E0008F929F92AF92BF92CF92DF92EF92FF9232
:1016F0000F931F93CF93DF93CDB7DEB7CA1BDB0BDE
:101700000FB6F894DEBF0FBECDBF09942A88398882
:1017100048885F846E847D848C849B84AA84B98489
:10172000C884DF80EE80FD800C811B81AA81B98195
:10173000CE0FD11D0FB6F894DEBF0FBECDBFED01A9
:061740000895F894FFCFAC
:1017460001000000120001FFFF0100000000780701
:04175600C507DD07DF
:00000001FF
