:100000000C9462000C948A000C948A000C948A0070
:100010000C948A000C948A000C948A000C948A0038
:100020000C948A000C948A000C948A000C948A0028
:100030000C948A000C948A000C948A000C948A0018
:100040000C94B9060C948A000C94E2070C948A0074
:100050000C948A000C948A000C948A000C948A00F8
:100060000C948A000C948A000000000024002700F1
:100070002A0000000000250028002B0000000000DE
:1000800023002600290004040404040404040202DA
:100090000202020203030303030301020408102007
:1000A0004080010204081020010204081020000012
:1000B0000007000201000003040600000000000029
:1000C00000002B0911241FBECFEFD4E0DEBFCDBF4F
:1000D00011E0A0E0B1E0EEEBF9E102C005900D9275
:1000E000A631B107D9F712E0A6E1B1E001C01D9237
:1000F000AD34B107E1F710E0C4ECD0E004C02297C2
:10010000FE010E94A20CC23CD107C9F70E94B206B0
:100110000C94DD0C0C940000A0E0B0E0E2E9F0E00B
:100120000C94AE0CEC01A880B980CA80DB80A114CD
:10013000B104C104D10441F484E2A82E89EDB82EA3
:100140008BE5C82E87E0D82EC601B5012DE133EF2F
:1001500041E050E00E94710C27EA31E440E050E0B9
:100160000E941D0C7B018C01C601B5012DE133EF0E
:1001700041E050E00E94710CCA01B9012CEE34EF4D
:100180004FEF5FEF0E941D0C6E0D7F1D801F911FB2
:1001900097FF04C061507040804090486883798325
:1001A0008A839B839B01AC015F77B901CA01CDB7FC
:1001B000DEB7EAE00C94CA0C0E948C00089586E039
:1001C00091E00E948C0008956093060170930701EE
:1001D0008093080190930901089560911A0170912C
:1001E0001B01882777FD8095982F0E940A0B20E03D
:1001F00030E046E154E40E946F0A20E030E040E83D
:1002000051E40E94BA0B0E94D70A40E050E00FC0B0
:1002100011922F5F3F4F28303105D1F74F5F5F4F6D
:100220004031510521F440E050E082E013C0FA0172
:1002300023E0EE0FFF1F2A95E1F7E35EFE4F20E07B
:1002400030E0E6CF81932F5F3F4F28303105D1F763
:100250004F5F5F4F461757075CF4FA0193E0EE0FCC
:10026000FF1F9A95E1F7E35EFE4F20E030E0EACF12
:100270000895DF93CF93CDB7DEB760970FB6F894AC
:10028000DEBF0FBECDBF982FADE1B1E0AE014F5F35
:100290005F4FFA019D01285F3F4F8D91808311824E
:1002A00032962A173B07C9F7B90120E030E00DC0AC
:1002B00080858193E617F707D9F72F5F3F4FBF017E
:1002C000685F7F4F2F30310549F0F901A3E0EE0F51
:1002D000FF1FAA95E1F7E35EFE4FEACF992371F085
:1002E000E5E9F1E09E012F5E3F4FDA018C918193A9
:1002F0004E5F5F4F42175307C1F707C0E5E9F1E0D2
:100300001192B1E0ED39FB07D9F760960FB6F8947A
:10031000DEBF0FBECDBFCF91DF910895DF93CF93A6
:10032000CDB7DEB760970FB6F894DEBF0FBECDBF76
:10033000982FADE1B1E0AE014F5F5F4FFA019D0133
:10034000285F3F4F8D918083118232962A173B0799
:10035000C9F7B90120E030E00DC080858193E61730
:10036000F707D9F72F5F3F4FBF01685F7F4F2031FD
:10037000310549F0F901B3E0EE0FFF1FBA95E1F73F
:10038000E35EFE4FEACF992369F0E5E9F1E09E01D3
:100390002F5E3F4FDA018C9181934E5F5F4F421782
:1003A0005307C1F760960FB6F894DEBF0FBECDBFFE
:1003B000CF91DF910895EF92FF920F931F93CF9308
:1003C000DF9380911C018823A9F180E00E948E01B7
:1003D00060911A0170911B01882777FD8095982FF5
:1003E0000E940A0B20E030E046E154E40E946F0ACC
:1003F0007B018C0120E030E040E851E40E94BA0B20
:100400000E94D70AEB01C801B70120E030E040E0CC
:1004100051E40E94BA0B0E94D70AFB01E35EFE4F33
:1004200080E090E021E003C02083019638968C178D
:100430009D07D4F3DF91CF911F910F91FF90EF9023
:1004400008958091A1019091A20101969093A2013B
:100450008093A101409724F01092A2011092A10173
:1004600060911A0170911B01882777FD8095982F64
:100470000E940A0B20E030E046E154E40E946F0A3B
:1004800020E030E040E051E40E94BA0B0E94D70A1D
:10049000E091A101F091A20183E0EE0FFF1F8A9588
:1004A000E1F7E35EFE4FDF0120E030E081E0261758
:1004B000370714F4808301C01C922F5F3F4F3196A1
:1004C00011962830310599F70895EF92FF920F9316
:1004D0001F93CF93DF93C0911A01D0911B016091BC
:1004E000A7017091A8018091A9019091AA012AE920
:1004F00039E949E95FE30E94BA0B7B018C01BE0137
:10050000882777FD8095982F0E940A0B9B01AC01EC
:10051000C801B7010E946B0A88239CF4C536D10537
:1005200084F08091AB019091AC01892B71F481E052
:1005300090E09093AC018093AB0181E080931C012B
:1005400006C01092AC011092AB0110921C01DF9119
:10055000CF911F910F91FF90EF900895AF92BF92AE
:10056000CF92DF92EF92FF920F931F93CF93DF937F
:1005700020E030E040E050E0C0E0D0E0CA01B90146
:1005800026E636E646E65FE30E94BA0B7B018C0165
:1005900085E00E9457079C012050324037FF03C07E
:1005A000309521953F4FB901882777FD8095982F89
:1005B0000E940A0B2DEC3CEC4CEC5DE30E94BA0B64
:1005C0009B01AC01C801B7010E94070A9B01AC0165
:1005D0002196C431D10591F60E94D70A7B018C0186
:1005E000162F0F2D6091A7017091A8018091A9018C
:1005F0009091AA0126E636E646E65FE30E94BA0B32
:100600005B016C019701F7FE03C0309521953F4FC8
:10061000B901882777FD8095982F0E940A0B2DEC51
:100620003CEC4CEC5DE30E94BA0B9B01AC01C601B3
:10063000B5010E94070A6093A7017093A8018093F7
:10064000A9019093AA0110931A0100931B01DF9155
:10065000CF911F910F91FF90EF90DF90CF90BF90BF
:10066000AF9008951F93CF93DF9380911C0188234F
:10067000C1F1C0E0D0E011E085E00E945707805052
:100680009240AA2797FDA095BA2FBC01CD010E94E8
:100690000A0B20E030E046E154E40E946F0A20E0BB
:1006A00030E040E051E40E94BA0B0E94D70AFE01FC
:1006B00023E0EE0FFF1F2A95E1F7E35EFE4F20E0F7
:1006C00030E02617370714F4108301C010822F5F23
:1006D0003F4F319628303105A1F72196C031D10521
:1006E00059F6DF91CF911F9108959F92AF92BF92DB
:1006F000CF92DF92EF92FF920F931F93E090A301AE
:10070000F090A4010091A5011091A6018FE090E066
:10071000A0E0B0E0E80EF91E0A1F1B1F0E940107AF
:10072000E616F70608071907D0F50E94010760933F
:10073000A3017093A4018093A5019093A60180E08A
:100740000E94390180911C01882349F1AA24BB240D
:10075000650132E0932E11C067E070E080E090E028
:100760000E94C609DC01CB01835E9E4F88589F4FD3
:10077000DC019C920897FC0190828601750168E07B
:1007800070E080E090E00E94C6090894A11CB11CB2
:10079000C11CD11CE616F70608071907ECF21F91D9
:1007A0000F91FF90EF90DF90CF90BF90AF909F9010
:1007B00008952F923F924F925F926F927F928F9205
:1007C0009F92AF92BF92CF92DF92EF92FF920F93E0
:1007D0001F93DF93CF93CDB7DEB7C456D0400FB68B
:1007E000F894DEBF0FBECDBF20E030E00AC011920A
:1007F000019688309105D9F72F5F3F4F20313105A1
:1008000059F0F90173E0EE0FFF1F7A95E1F7E35E0F
:10081000FE4F80E090E0EBCFFE01319684E6DF01F1
:100820001D928A95E9F782E090E09A8789879C87F4
:100830008B879E878D87988B8F8781E090E0988F3C
:100840008F8B9A8F898F9C8F8B8F6624772463E0A0
:1008500070E080E090E00E94C6091B014301880C13
:10086000991CE1E0F0E0EC0FFD1F8E0E9F1EAA2404
:10087000BB24650104C0D4012D923D924D01250198
:100880008601750165E070E080E090E00E94C60995
:100890000894A11CB11CC11CD11CE616F706080760
:1008A00019074CF3640C751CBEE16B1671047CF2E5
:1008B00000E010E05E010894A11CB11C1AC0C9013F
:1008C000800F911F6EE070E00E943C0CFC01EE0F67
:1008D000FF1FEA0DFB1D8081F60181936F012F5FE1
:1008E0003F4F2830310559F70F5F1F4F0031110579
:1008F00069F0680143E0CC0CDD1C4A95E1F78DE11D
:1009000091E0C80ED91E20E030E0D9CFCC59DF4F9E
:100910000FB6F894DEBF0FBECDBFCF91DF911F9110
:100920000F91FF90EF90DF90CF90BF90AF909F908E
:100930008F907F906F905F904F903F902F90089591
:1009400020911801309119018091160190911701A1
:100950002817390711F00E94D90380911C018823C0
:1009600019F081E00E948E010895AF92BF92CF925C
:10097000DF92EF92FF920F931F93CF93DF9383E069
:1009800060E00E94950784E060E00E94950782E0A5
:1009900060E00E94950781E090E00E940F07BCEFA5
:1009A000AB2EBFEFBB2E56C08881813019F060E0BE
:1009B000833009F461E087E00E94950760E0888158
:1009C0008250823008F461E086E00E9495078C81B5
:1009D000813019F060E0833009F461E088E00E9422
:1009E000950760E08C818250823008F461E085E0F8
:1009F0000E94950782E061E00E94950781E090E007
:100A00000E940F0782E060E00E94950781E090E07D
:100A10000E940F070894C108D10828978FEFC816C5
:100A20008FEFD80609F60894E108F1088FEFE81671
:100A30008FEFF80649F0E701C00FD11FC35EDE4F0C
:100A4000A3E0CA2ED12CB0CF0894A11CB11CA114D4
:100A5000B10471F0850100951095F3E0EF2EF12CB3
:100A6000E5E0000F111FEA95E1F7085E1F4FE3CFA5
:100A700083E061E00E94950781E090E00E940F070B
:100A800083E060E00E94950784E060E00E949507A3
:100A9000DF91CF911F910F91FF90EF90DF90CF905A
:100AA000BF90AF900895AF92BF92CF92DF92EF9236
:100AB000FF920F931F93CF93DF930E9401075B0177
:100AC0006C01E0909D01F0909E0100919F011091BA
:100AD000A00183E00E945707AA2797FDA095BA2F8F
:100AE0008E0D9F1DA01FB11F8A159B05AC05BD056E
:100AF000E0F50E94010760939D0170939E01809331
:100B00009F019093A00180E00E948E0160911A01E4
:100B100070911B01882777FD8095982F0E940A0B02
:100B200020E030E040E05BE30E94BA0B20E030E0E0
:100B300040E051E40E94BA0B0E94D70AEB0161E049
:100B400070E080E090E022E030E040E050E00E9481
:100B5000E80980E090E021E005C0FC01EB56FE4F83
:100B6000208301968C179D07C4F3DF91CF911F91CD
:100B70000F91FF90EF90DF90CF90BF90AF900895CE
:100B8000882311F460E00AC061E070E080E090E04A
:100B900023E030E040E050E00E94E809862F08950D
:100BA0008F929F92AF92BF92CF92DF92EF92FF927D
:100BB0000F931F93CF93DF9380911C01882321F023
:100BC00088E2882E912C03C004E6802E912CC0E090
:100BD000D0E060E170E080E090E00E94C6097B0117
:100BE0008C0168E070E080E090E00E94C6095B0143
:100BF0006C0180911C010E94C00513E0EE0CFF1CEB
:100C00001A95E1F7EA0CFB1C2DE131E0E20EF31E30
:100C1000F70180832196C815D905DCF2DF91CF91C9
:100C20001F910F91FF90EF90DF90CF90BF90AF900A
:100C30009F908F9008950E94AE020E94650282E00C
:100C40000E945707AA2797FDA095BA2FBC01CD0196
:100C50000E940A0B20E030E040E05CE30E94BA0B07
:100C600020E030E040E85FE30E94070A0E94D70AD4
:100C700070931901609318016430710519F16530A2
:100C8000710554F462307105B9F063307105BCF43C
:100C90006130710529F50DC066307105C9F0663007
:100CA00071059CF067307105B1F068307105C1F4D1
:100CB00015C00E94D00514C00E94ED0011C00E9412
:100CC00021020EC00E94A0040BC00E94320308C083
:100CD0000E94DB0105C00E94530502C00E947503FB
:100CE000809118019091190190931701809316013A
:100CF0000E94B50408950F931F9382E061E00E9463
:100D0000750784E061E00E94750783E061E00E945E
:100D1000750787E061E00E94750786E061E00E9448
:100D2000750785E061E00E94750788E061E00E9438
:100D300075078DE061E00E9475078DE061E00E941B
:100D400095070AE312E0C80140E855E260E070E070
:100D50000E941F08C80160E071E00E94BB091F915A
:100D60000F9108950E941D070E947B060E941B069A
:100D7000FDCF1F920F920FB60F9211242F933F9326
:100D80008F939F93AF93BF938091B1019091B201E4
:100D9000A091B301B091B4013091B5010196A11DAC
:100DA000B11D232F2D5F2D3720F02D570196A11D4A
:100DB000B11D2093B5018093B1019093B201A0932E
:100DC000B301B093B4018091AD019091AE01A091B7
:100DD000AF01B091B0010196A11DB11D8093AD018D
:100DE0009093AE01A093AF01B093B001BF91AF91CA
:100DF0009F918F913F912F910F900FBE0F901F9059
:100E000018958FB7F8942091B1013091B2014091BB
:100E1000B3015091B4018FBFB901CA010895019780
:100E200059F0FC01EE0FFF1FEE0FFF1F32978FB737
:100E3000F8943197F1F78FBF0895789484B5826064
:100E400084BD84B5816084BD85B5826085BD85B56E
:100E5000816085BDEEE6F0E0808181608083E1E81D
:100E6000F0E0808182608083808181608083E0E81F
:100E7000F0E0808181608083E1EBF0E0808184603C
:100E80008083E0EBF0E0808181608083EAE7F0E03E
:100E900080818460808380818260808380818160A2
:100EA00080838081806880831092C10008958F7054
:100EB00090910A019295990F990F907C982B90939D
:100EC0007C0080917A00806480937A0080917A001F
:100ED00086FDFCCF2091780040917900942F80E02E
:100EE00030E0282B392BC9010895282F30E0C901A3
:100EF00086569F4FFC0194912A573F4FF9018491E8
:100F0000882391F0E82FF0E0EE0FFF1FE859FF4F24
:100F1000A591B491662329F48C91909589238C93A3
:100F200008958C91892B8C930895482F50E0CA0125
:100F300082559F4FFC012491CA0186569F4FFC01A8
:100F400094914A575F4FFA0134913323D1F1222310
:100F500031F1233021F4809180008F7705C0243057
:100F600031F4809180008F7D8093800018C0213003
:100F700019F484B58F7704C0223021F484B58F7DB5
:100F800084BD0DC0263021F48091B0008F7705C05C
:100F9000273029F48091B0008F7D8093B000E32F3B
:100FA000F0E0EE0FFF1FEE58FF4FA591B4916623BE
:100FB00029F48C91909589238C9308958C91892B99
:100FC0008C9308951F920F920FB60F9211242F93B6
:100FD0003F934F935F936F937F938F939F93AF93C1
:100FE000BF93EF93FF934091C600E0913602F091DA
:100FF0003702CF01019660E870E00E943C0C9C0132
:1010000080913802909139022817390739F0EA5453
:10101000FE4F40833093370220933602FF91EF91C9
:10102000BF91AF919F918F917F916F915F914F9100
:101030003F912F910F900FBE0F901F9018955F92C8
:101040006F927F928F929F92AF92BF92CF92DF92D8
:10105000EF92FF920F931F93CF93DF93EC013A012E
:101060004B01413482E458078FE0680780E078073D
:101070000CF07FC060E874E88EE190E0A401930179
:101080000E94710C2150304040405040CA01B901CB
:1010900022E030E040E050E00E94710C59016A010A
:1010A000A6019501209530954095509594E0220F2A
:1010B000331F441F551F9A95D1F760E074E284EF07
:1010C00090E00E94710CCA01B9012FEF30E040E0BE
:1010D00050E00E941D0CA40193010E94710CC901F3
:1010E00081509F4F181619061CF4522E5A9403C0B3
:1010F00055245394521A60E079E08DE390E0A40106
:1011000093010E94710C2150304040405040CA0170
:10111000B90122E030E040E050E00E94710C2095DF
:1011200030954095509583E0220F331F441F551F83
:101130008A95D1F760E074E284EF90E00E94710C30
:10114000CA01B9012FEF30E040E050E00E941D0CD1
:10115000A40193010E94710CC90181509F4F181680
:1011600019061CF4822F815002C081E0821B851574
:1011700000F5E885F98581E090E00A8802C0880FD3
:10118000991F0A94E2F7808360E079E08DE390E0B4
:10119000A40193010E94710C215030404040504006
:1011A000CA01B90122E030E040E050E00E94710C39
:1011B00004C0E885F98510829501EC81FD813083BA
:1011C000EE81FF812083EA85FB85208141E050E0AC
:1011D000CA010E8402C0880F991F0A94E2F7282BD7
:1011E0002083EA85FB852081CA010F8402C0880F15
:1011F000991F0A94E2F7282B2083EA85FB858081DA
:10120000088802C0440F551F0A94E2F7842B80839C
:10121000DF91CF911F910F91FF90EF90DF90CF90D2
:10122000BF90AF909F908F907F906F905F90089548
:10123000FC01A085B18521898C9190E0022E02C02D
:10124000959587950A94E2F780FFF6CF0484F5859B
:10125000E02D608308958FE091E090933B028093AE
:101260003A0286EB91E090933D0280933C0285EC3C
:1012700090E090933F0280933E0284EC90E0909344
:1012800041028093400280EC90E09093430280936F
:10129000420281EC90E0909345028093440286ECF8
:1012A00090E0909347028093460284E08093480246
:1012B00083E08093490287E080934A0285E080932F
:1012C0004B0281E080934C0208950F931F93CF93BC
:1012D000DF938C01EB0109C02196D801ED91FC91BF
:1012E0000190F081E02DC801099568816623A1F77E
:1012F000DF91CF911F910F910895EF92FF920F937D
:101300001F93CF93DF938C017B01EA010CC0D701BF
:101310006D917D01D801ED91FC910190F081E02D5E
:10132000C80109952197209791F7DF91CF911F91DF
:101330000F91FF90EF900895DC01ED91FC910280F8
:10134000F381E02D099508950F931F938C01DC0123
:10135000ED91FC910190F081E02D6DE00995D801AF
:10136000ED91FC910190F081E02DC8016AE00995B2
:101370001F910F9108950F931F938C010E949C0958
:10138000C8010E94A4091F910F910895EF92FF9246
:101390000F931F937B018C016115710581059105E8
:1013A00029F420E030E040E050E00BC00E94DF0074
:1013B000A80197010E94710CAC01CB01DA019C01DC
:1013C000AD01B901CA011F910F91FF90EF900895EF
:1013D000EF92FF920F931F937B018C0162177307AB
:1013E0008407950764F4261B370B480B590BCA0179
:1013F000B9010E94C609E60EF71E081F191FB701A2
:10140000C8011F910F91FF90EF9008955058BB278E
:10141000AA270ED075C166D130F06BD120F031F41F
:101420009F3F11F41EF45BC10EF4E095E7FB51C140
:10143000E92F77D180F3BA176207730784079507FE
:1014400018F071F49EF58FC10EF4E0950B2EBA2FB3
:10145000A02D0B01B90190010C01CA01A0011124BA
:10146000FF27591B99F0593F50F4503E68F11A1666
:10147000F040A22F232F342F4427585FF3CF4695F7
:1014800037952795A795F0405395C9F77EF41F1619
:10149000BA0B620B730B840BBAF09150A1F0FF0FE3
:1014A000BB1F661F771F881FC2F70EC0BA0F621FCF
:1014B000731F841F48F4879577956795B795F795BF
:1014C0009E3F08F0B3CF9395880F08F09927EE0F51
:1014D000979587950895D9D008F481E008950CD0A8
:1014E0000FC107D140F0FED030F021F45F3F19F07A
:1014F000F0C0511139C1F3C014D198F39923C9F345
:101500005523B1F3951B550BBB27AA276217730709
:10151000840738F09F5F5F4F220F331F441FAA1FBD
:10152000A9F333D00E2E3AF0E0E830D0915050407D
:10153000E695001CCAF729D0FE2F27D0660F771F2B
:10154000881FBB1F261737074807AB07B0E809F00D
:10155000BB0B802DBF01FF2793585F4F2AF09E3FA2
:10156000510568F0B6C000C15F3FECF3983EDCF374
:10157000869577956795B795F7959F5FC9F7880F1B
:10158000911D9695879597F90895E1E0660F771F6D
:10159000881FBB1F621773078407BA0720F0621BFE
:1015A000730B840BBA0BEE1F88F7E095089504D0F7
:1015B0006894B111D9C00895BCD088F09F5790F0BD
:1015C000B92F9927B751A0F0D1F0660F771F881F68
:1015D000991F1AF0BA95C9F712C0B13081F0C3D083
:1015E000B1E00895C0C0672F782F8827B85F39F021
:1015F000B93FCCF3869577956795B395D9F73EF4C7
:1016000090958095709561957F4F8F4F9F4F08956E
:10161000E89409C097FB3EF490958095709561958C
:101620007F4F8F4F9F4F9923A9F0F92F96E9BB2742
:101630009395F695879577956795B795F111F8CFBE
:10164000FAF4BB0F11F460FF1BC06F5F7F4F8F4F29
:101650009F4F16C0882311F096E911C0772321F01F
:101660009EE8872F762F05C0662371F096E8862FB7
:1016700070E060E02AF09A95660F771F881FDAF70E
:10168000880F9695879597F90895990F0008550F3B
:10169000AA0BE0E8FEEF16161706E807F907C0F0F8
:1016A00012161306E407F50798F0621B730B840B00
:1016B000950B39F40A2661F0232B242B252B21F4DA
:1016C00008950A2609F4A140A6958FEF811D811D7A
:1016D000089597F99F6780E870E060E008959FEFB4
:1016E00080EC089500240A941616170618060906B9
:1016F000089500240A941216130614060506089588
:10170000092E0394000C11F4882352F0BB0F40F40F
:10171000BF2B11F460FF04C06F5F7F4F8F4F9F4F4F
:10172000089557FD9058440F551F59F05F3F71F0D1
:101730004795880F97FB991F61F09F3F79F0879538
:101740000895121613061406551FF2CF4695F1DFC1
:1017500008C0161617061806991FF1CF8695710551
:10176000610508940895E894BB2766277727CB0185
:1017700097F908950BD0C4CFB5DF28F0BADF18F081
:10178000952309F0A6CFABCF1124EECFCADFA0F38B
:10179000959FD1F3950F50E0551F629FF001729F06
:1017A000BB27F00DB11D639FAA27F00DB11DAA1F25
:1017B000649F6627B00DA11D661F829F2227B00D72
:1017C000A11D621F739FB00DA11D621F839FA00DFD
:1017D000611D221F749F3327A00D611D231F849F4D
:1017E000600D211D822F762F6A2F11249F575040A4
:1017F0008AF0E1F088234AF0EE0FFF1FBB1F661F3F
:10180000771F881F91505040A9F79E3F510570F0F7
:1018100060CFAACF5F3FECF3983EDCF386957795D7
:101820006795B795F795E7959F5FC1F7FE2B880FF2
:10183000911D9695879597F90895629FD001739FA2
:10184000F001829FE00DF11D649FE00DF11D929F5C
:10185000F00D839FF00D749FF00D659FF00D99279B
:10186000729FB00DE11DF91F639FB00DE11DF91FBF
:10187000BD01CF011124089597FB092E07260AD038
:1018800077FD04D049D006D000201AF470956195F8
:101890007F4F0895F6F7909581959F4F0895A1E2A7
:1018A0001A2EAA1BBB1BFD010DC0AA1FBB1FEE1FDA
:1018B000FF1FA217B307E407F50720F0A21BB30B25
:1018C000E40BF50B661F771F881F991F1A9469F7A1
:1018D00060957095809590959B01AC01BD01CF01FD
:1018E000089597FB092E05260ED057FD04D0D7DFAB
:1018F0000AD0001C38F450954095309521953F4F03
:101900004F4F5F4F0895F6F79095809570956195CC
:101910007F4F8F4F9F4F0895AA1BBB1B51E107C0FC
:10192000AA1FBB1FA617B70710F0A61BB70B881F6F
:10193000991F5A95A9F780959095BC01CD010895FE
:10194000EE0FFF1F0590F491E02D09942F923F9226
:101950004F925F926F927F928F929F92AF92BF92BF
:10196000CF92DF92EF92FF920F931F93CF93DF936B
:10197000CDB7DEB7CA1BDB0B0FB6F894DEBF0FBEC8
:10198000CDBF09942A88398848885F846E847D8415
:101990008C849B84AA84B984C884DF80EE80FD8017
:1019A0000C811B81AA81B981CE0FD11D0FB6F8948D
:0E19B000DEBF0FBECDBFED010895F894FFCF4E
:1019BE0068656C6C6F0001000000010000000018EB
:0619CE000965097D090016
:00000001FF
